{
  "_format": "hh-sol-artifact-1",
  "contractName": "SBT",
  "sourceName": "contracts/SBT.sol",
  "abi": [
    {
      "inputs": [],
      "stateMutability": "nonpayable",
      "type": "constructor"
    },
    {
      "anonymous": false,
      "inputs": [
        {
          "indexed": true,
          "internalType": "address",
          "name": "account",
          "type": "address"
        },
        {
          "indexed": true,
          "internalType": "address",
          "name": "operator",
          "type": "address"
        },
        {
          "indexed": false,
          "internalType": "bool",
          "name": "approved",
          "type": "bool"
        }
      ],
      "name": "ApprovalForAll",
      "type": "event"
    },
    {
      "anonymous": false,
      "inputs": [
        {
          "indexed": true,
          "internalType": "address",
          "name": "operator",
          "type": "address"
        },
        {
          "indexed": true,
          "internalType": "address",
          "name": "from",
          "type": "address"
        },
        {
          "indexed": true,
          "internalType": "address",
          "name": "to",
          "type": "address"
        },
        {
          "indexed": false,
          "internalType": "uint256[]",
          "name": "ids",
          "type": "uint256[]"
        },
        {
          "indexed": false,
          "internalType": "uint256[]",
          "name": "values",
          "type": "uint256[]"
        }
      ],
      "name": "TransferBatch",
      "type": "event"
    },
    {
      "anonymous": false,
      "inputs": [
        {
          "indexed": true,
          "internalType": "address",
          "name": "operator",
          "type": "address"
        },
        {
          "indexed": true,
          "internalType": "address",
          "name": "from",
          "type": "address"
        },
        {
          "indexed": true,
          "internalType": "address",
          "name": "to",
          "type": "address"
        },
        {
          "indexed": false,
          "internalType": "uint256",
          "name": "id",
          "type": "uint256"
        },
        {
          "indexed": false,
          "internalType": "uint256",
          "name": "value",
          "type": "uint256"
        }
      ],
      "name": "TransferSingle",
      "type": "event"
    },
    {
      "anonymous": false,
      "inputs": [
        {
          "indexed": false,
          "internalType": "string",
          "name": "value",
          "type": "string"
        },
        {
          "indexed": true,
          "internalType": "uint256",
          "name": "id",
          "type": "uint256"
        }
      ],
      "name": "URI",
      "type": "event"
    },
    {
      "inputs": [
        {
          "internalType": "address",
          "name": "account",
          "type": "address"
        },
        {
          "internalType": "uint256",
          "name": "id",
          "type": "uint256"
        }
      ],
      "name": "balanceOf",
      "outputs": [
        {
          "internalType": "uint256",
          "name": "",
          "type": "uint256"
        }
      ],
      "stateMutability": "view",
      "type": "function"
    },
    {
      "inputs": [
        {
          "internalType": "address[]",
          "name": "accounts",
          "type": "address[]"
        },
        {
          "internalType": "uint256[]",
          "name": "ids",
          "type": "uint256[]"
        }
      ],
      "name": "balanceOfBatch",
      "outputs": [
        {
          "internalType": "uint256[]",
          "name": "",
          "type": "uint256[]"
        }
      ],
      "stateMutability": "view",
      "type": "function"
    },
    {
      "inputs": [
        {
          "internalType": "uint256",
          "name": "tokenid",
          "type": "uint256"
        }
      ],
      "name": "burn",
      "outputs": [],
      "stateMutability": "nonpayable",
      "type": "function"
    },
    {
      "inputs": [
        {
          "internalType": "address",
          "name": "account",
          "type": "address"
        },
        {
          "internalType": "address",
          "name": "operator",
          "type": "address"
        }
      ],
      "name": "isApprovedForAll",
      "outputs": [
        {
          "internalType": "bool",
          "name": "",
          "type": "bool"
        }
      ],
      "stateMutability": "view",
      "type": "function"
    },
    {
      "inputs": [
        {
          "internalType": "uint256",
          "name": "tokenid",
          "type": "uint256"
        }
      ],
      "name": "mint",
      "outputs": [],
      "stateMutability": "nonpayable",
      "type": "function"
    },
    {
      "inputs": [
        {
          "internalType": "address",
          "name": "from",
          "type": "address"
        },
        {
          "internalType": "address",
          "name": "to",
          "type": "address"
        },
        {
          "internalType": "uint256[]",
          "name": "ids",
          "type": "uint256[]"
        },
        {
          "internalType": "uint256[]",
          "name": "amounts",
          "type": "uint256[]"
        },
        {
          "internalType": "bytes",
          "name": "data",
          "type": "bytes"
        }
      ],
      "name": "safeBatchTransferFrom",
      "outputs": [],
      "stateMutability": "nonpayable",
      "type": "function"
    },
    {
      "inputs": [
        {
          "internalType": "address",
          "name": "from",
          "type": "address"
        },
        {
          "internalType": "address",
          "name": "to",
          "type": "address"
        },
        {
          "internalType": "uint256",
          "name": "id",
          "type": "uint256"
        },
        {
          "internalType": "uint256",
          "name": "amount",
          "type": "uint256"
        },
        {
          "internalType": "bytes",
          "name": "data",
          "type": "bytes"
        }
      ],
      "name": "safeTransferFrom",
      "outputs": [],
      "stateMutability": "nonpayable",
      "type": "function"
    },
    {
      "inputs": [
        {
          "internalType": "address",
          "name": "operator",
          "type": "address"
        },
        {
          "internalType": "bool",
          "name": "approved",
          "type": "bool"
        }
      ],
      "name": "setApprovalForAll",
      "outputs": [],
      "stateMutability": "nonpayable",
      "type": "function"
    },
    {
      "inputs": [
        {
          "internalType": "bytes4",
          "name": "interfaceId",
          "type": "bytes4"
        }
      ],
      "name": "supportsInterface",
      "outputs": [
        {
          "internalType": "bool",
          "name": "",
          "type": "bool"
        }
      ],
      "stateMutability": "view",
      "type": "function"
    },
    {
      "inputs": [
        {
          "internalType": "uint256",
          "name": "",
          "type": "uint256"
        }
      ],
      "name": "uri",
      "outputs": [
        {
          "internalType": "string",
          "name": "",
          "type": "string"
        }
      ],
      "stateMutability": "view",
      "type": "function"
    }
  ],
  "bytecode": "0x60806040523480156200001157600080fd5b506040518060200160405280600081525062000033816200003a60201b60201c565b50620003b0565b80600290816200004b9190620002c9565b5050565b600081519050919050565b7f4e487b7100000000000000000000000000000000000000000000000000000000600052604160045260246000fd5b7f4e487b7100000000000000000000000000000000000000000000000000000000600052602260045260246000fd5b60006002820490506001821680620000d157607f821691505b602082108103620000e757620000e662000089565b5b50919050565b60008190508160005260206000209050919050565b60006020601f8301049050919050565b600082821b905092915050565b600060088302620001517fffffffffffffffffffffffffffffffffffffffffffffffffffffffffffffffff8262000112565b6200015d868362000112565b95508019841693508086168417925050509392505050565b6000819050919050565b6000819050919050565b6000620001aa620001a46200019e8462000175565b6200017f565b62000175565b9050919050565b6000819050919050565b620001c68362000189565b620001de620001d582620001b1565b8484546200011f565b825550505050565b600090565b620001f5620001e6565b62000202818484620001bb565b505050565b5b818110156200022a576200021e600082620001eb565b60018101905062000208565b5050565b601f82111562000279576200024381620000ed565b6200024e8462000102565b810160208510156200025e578190505b620002766200026d8562000102565b83018262000207565b50505b505050565b600082821c905092915050565b60006200029e600019846008026200027e565b1980831691505092915050565b6000620002b983836200028b565b9150826002028217905092915050565b620002d4826200004f565b67ffffffffffffffff811115620002f057620002ef6200005a565b5b620002fc8254620000b8565b620003098282856200022e565b600060209050601f8311600181146200034157600084156200032c578287015190505b620003388582620002ab565b865550620003a8565b601f1984166200035186620000ed565b60005b828110156200037b5784890151825560018201915060208501945060208101905062000354565b868310156200039b578489015162000397601f8916826200028b565b8355505b6001600288020188555050505b505050505050565b612c3180620003c06000396000f3fe608060405234801561001057600080fd5b506004361061009d5760003560e01c80634e1273f4116100665780634e1273f41461016a578063a0712d681461019a578063a22cb465146101b6578063e985e9c5146101d2578063f242432a146102025761009d565b8062fdd58e146100a257806301ffc9a7146100d25780630e89341c146101025780632eb2c2d61461013257806342966c681461014e575b600080fd5b6100bc60048036038101906100b791906118c8565b61021e565b6040516100c99190611917565b60405180910390f35b6100ec60048036038101906100e7919061198a565b6102e6565b6040516100f991906119d2565b60405180910390f35b61011c600480360381019061011791906119ed565b6103c8565b6040516101299190611aaa565b60405180910390f35b61014c60048036038101906101479190611cc9565b61045c565b005b610168600480360381019061016391906119ed565b6104fd565b005b610184600480360381019061017f9190611e5b565b61050c565b6040516101919190611f91565b60405180910390f35b6101b460048036038101906101af91906119ed565b610625565b005b6101d060048036038101906101cb9190611fdf565b610644565b005b6101ec60048036038101906101e7919061201f565b61065a565b6040516101f991906119d2565b60405180910390f35b61021c6004803603810190610217919061205f565b6106ee565b005b60008073ffffffffffffffffffffffffffffffffffffffff168373ffffffffffffffffffffffffffffffffffffffff160361028e576040517f08c379a000000000000000000000000000000000000000000000000000000000815260040161028590612168565b60405180910390fd5b60008083815260200190815260200160002060008473ffffffffffffffffffffffffffffffffffffffff1673ffffffffffffffffffffffffffffffffffffffff16815260200190815260200160002054905092915050565b60007fd9b67a26000000000000000000000000000000000000000000000000000000007bffffffffffffffffffffffffffffffffffffffffffffffffffffffff1916827bffffffffffffffffffffffffffffffffffffffffffffffffffffffff191614806103b157507f0e89341c000000000000000000000000000000000000000000000000000000007bffffffffffffffffffffffffffffffffffffffffffffffffffffffff1916827bffffffffffffffffffffffffffffffffffffffffffffffffffffffff1916145b806103c157506103c08261078f565b5b9050919050565b6060600280546103d7906121b7565b80601f0160208091040260200160405190810160405280929190818152602001828054610403906121b7565b80156104505780601f1061042557610100808354040283529160200191610450565b820191906000526020600020905b81548152906001019060200180831161043357829003601f168201915b50505050509050919050565b6104646107f9565b73ffffffffffffffffffffffffffffffffffffffff168573ffffffffffffffffffffffffffffffffffffffff1614806104aa57506104a9856104a46107f9565b61065a565b5b6104e9576040517f08c379a00000000000000000000000000000000000000000000000000000000081526004016104e09061225a565b60405180910390fd5b6104f68585858585610801565b5050505050565b61050933826001610b22565b50565b60608151835114610552576040517f08c379a0000000000000000000000000000000000000000000000000000000008152600401610549906122ec565b60405180910390fd5b6000835167ffffffffffffffff81111561056f5761056e611ad1565b5b60405190808252806020026020018201604052801561059d5781602001602082028036833780820191505090505b50905060005b845181101561061a576105ea8582815181106105c2576105c161230c565b5b60200260200101518583815181106105dd576105dc61230c565b5b602002602001015161021e565b8282815181106105fd576105fc61230c565b5b602002602001018181525050806106139061236a565b90506105a3565b508091505092915050565b6106413382600160405180602001604052806000815250610d68565b50565b61065661064f6107f9565b8383610f18565b5050565b6000600160008473ffffffffffffffffffffffffffffffffffffffff1673ffffffffffffffffffffffffffffffffffffffff16815260200190815260200160002060008373ffffffffffffffffffffffffffffffffffffffff1673ffffffffffffffffffffffffffffffffffffffff16815260200190815260200160002060009054906101000a900460ff16905092915050565b6106f66107f9565b73ffffffffffffffffffffffffffffffffffffffff168573ffffffffffffffffffffffffffffffffffffffff16148061073c575061073b856107366107f9565b61065a565b5b61077b576040517f08c379a00000000000000000000000000000000000000000000000000000000081526004016107729061225a565b60405180910390fd5b6107888585858585611084565b5050505050565b60007f01ffc9a7000000000000000000000000000000000000000000000000000000007bffffffffffffffffffffffffffffffffffffffffffffffffffffffff1916827bffffffffffffffffffffffffffffffffffffffffffffffffffffffff1916149050919050565b600033905090565b8151835114610845576040517f08c379a000000000000000000000000000000000000000000000000000000000815260040161083c90612424565b60405180910390fd5b600073ffffffffffffffffffffffffffffffffffffffff168473ffffffffffffffffffffffffffffffffffffffff16036108b4576040517f08c379a00000000000000000000000000000000000000000000000000000000081526004016108ab906124b6565b60405180910390fd5b60006108be6107f9565b90506108ce81878787878761131f565b60005b8451811015610a7f5760008582815181106108ef576108ee61230c565b5b60200260200101519050600085838151811061090e5761090d61230c565b5b60200260200101519050600080600084815260200190815260200160002060008b73ffffffffffffffffffffffffffffffffffffffff1673ffffffffffffffffffffffffffffffffffffffff168152602001908152602001600020549050818110156109af576040517f08c379a00000000000000000000000000000000000000000000000000000000081526004016109a690612548565b60405180910390fd5b81810360008085815260200190815260200160002060008c73ffffffffffffffffffffffffffffffffffffffff1673ffffffffffffffffffffffffffffffffffffffff168152602001908152602001600020819055508160008085815260200190815260200160002060008b73ffffffffffffffffffffffffffffffffffffffff1673ffffffffffffffffffffffffffffffffffffffff1681526020019081526020016000206000828254610a649190612568565b9250508190555050505080610a789061236a565b90506108d1565b508473ffffffffffffffffffffffffffffffffffffffff168673ffffffffffffffffffffffffffffffffffffffff168273ffffffffffffffffffffffffffffffffffffffff167f4a39dc06d4c0dbc64b70af90fd698a233a518aa5d07e595d983b8c0526c8f7fb8787604051610af692919061259c565b60405180910390a4610b0c8187878787876113cd565b610b1a8187878787876113d5565b505050505050565b600073ffffffffffffffffffffffffffffffffffffffff168373ffffffffffffffffffffffffffffffffffffffff1603610b91576040517f08c379a0000000000000000000000000000000000000000000000000000000008152600401610b8890612645565b60405180910390fd5b6000610b9b6107f9565b90506000610ba8846115ac565b90506000610bb5846115ac565b9050610bd58387600085856040518060200160405280600081525061131f565b600080600087815260200190815260200160002060008873ffffffffffffffffffffffffffffffffffffffff1673ffffffffffffffffffffffffffffffffffffffff16815260200190815260200160002054905084811015610c6c576040517f08c379a0000000000000000000000000000000000000000000000000000000008152600401610c63906126d7565b60405180910390fd5b84810360008088815260200190815260200160002060008973ffffffffffffffffffffffffffffffffffffffff1673ffffffffffffffffffffffffffffffffffffffff16815260200190815260200160002081905550600073ffffffffffffffffffffffffffffffffffffffff168773ffffffffffffffffffffffffffffffffffffffff168573ffffffffffffffffffffffffffffffffffffffff167fc3d58168c5ae7397731d063d5bbf3d657854427343f4c083240f7aacaa2d0f628989604051610d399291906126f7565b60405180910390a4610d5f848860008686604051806020016040528060008152506113cd565b50505050505050565b600073ffffffffffffffffffffffffffffffffffffffff168473ffffffffffffffffffffffffffffffffffffffff1603610dd7576040517f08c379a0000000000000000000000000000000000000000000000000000000008152600401610dce90612792565b60405180910390fd5b6000610de16107f9565b90506000610dee856115ac565b90506000610dfb856115ac565b9050610e0c8360008985858961131f565b8460008088815260200190815260200160002060008973ffffffffffffffffffffffffffffffffffffffff1673ffffffffffffffffffffffffffffffffffffffff1681526020019081526020016000206000828254610e6b9190612568565b925050819055508673ffffffffffffffffffffffffffffffffffffffff16600073ffffffffffffffffffffffffffffffffffffffff168473ffffffffffffffffffffffffffffffffffffffff167fc3d58168c5ae7397731d063d5bbf3d657854427343f4c083240f7aacaa2d0f628989604051610ee99291906126f7565b60405180910390a4610f00836000898585896113cd565b610f0f83600089898989611626565b50505050505050565b8173ffffffffffffffffffffffffffffffffffffffff168373ffffffffffffffffffffffffffffffffffffffff1603610f86576040517f08c379a0000000000000000000000000000000000000000000000000000000008152600401610f7d90612824565b60405180910390fd5b80600160008573ffffffffffffffffffffffffffffffffffffffff1673ffffffffffffffffffffffffffffffffffffffff16815260200190815260200160002060008473ffffffffffffffffffffffffffffffffffffffff1673ffffffffffffffffffffffffffffffffffffffff16815260200190815260200160002060006101000a81548160ff0219169083151502179055508173ffffffffffffffffffffffffffffffffffffffff168373ffffffffffffffffffffffffffffffffffffffff167f17307eab39ab6107e8899845ad3d59bd9653f200f220920489ca2b5937696c318360405161107791906119d2565b60405180910390a3505050565b600073ffffffffffffffffffffffffffffffffffffffff168473ffffffffffffffffffffffffffffffffffffffff16036110f3576040517f08c379a00000000000000000000000000000000000000000000000000000000081526004016110ea906124b6565b60405180910390fd5b60006110fd6107f9565b9050600061110a856115ac565b90506000611117856115ac565b905061112783898985858961131f565b600080600088815260200190815260200160002060008a73ffffffffffffffffffffffffffffffffffffffff1673ffffffffffffffffffffffffffffffffffffffff168152602001908152602001600020549050858110156111be576040517f08c379a00000000000000000000000000000000000000000000000000000000081526004016111b590612548565b60405180910390fd5b85810360008089815260200190815260200160002060008b73ffffffffffffffffffffffffffffffffffffffff1673ffffffffffffffffffffffffffffffffffffffff168152602001908152602001600020819055508560008089815260200190815260200160002060008a73ffffffffffffffffffffffffffffffffffffffff1673ffffffffffffffffffffffffffffffffffffffff16815260200190815260200160002060008282546112739190612568565b925050819055508773ffffffffffffffffffffffffffffffffffffffff168973ffffffffffffffffffffffffffffffffffffffff168573ffffffffffffffffffffffffffffffffffffffff167fc3d58168c5ae7397731d063d5bbf3d657854427343f4c083240f7aacaa2d0f628a8a6040516112f09291906126f7565b60405180910390a4611306848a8a86868a6113cd565b611314848a8a8a8a8a611626565b505050505050505050565b600073ffffffffffffffffffffffffffffffffffffffff168573ffffffffffffffffffffffffffffffffffffffff1614806113865750600073ffffffffffffffffffffffffffffffffffffffff168473ffffffffffffffffffffffffffffffffffffffff16145b6113c5576040517f08c379a00000000000000000000000000000000000000000000000000000000081526004016113bc90612890565b60405180910390fd5b505050505050565b505050505050565b6113f48473ffffffffffffffffffffffffffffffffffffffff166117fd565b156115a4578373ffffffffffffffffffffffffffffffffffffffff1663bc197c8187878686866040518663ffffffff1660e01b815260040161143a959493929190612914565b6020604051808303816000875af192505050801561147657506040513d601f19601f820116820180604052508101906114739190612991565b60015b61151b576114826129cb565b806308c379a0036114de57506114966129ed565b806114a157506114e0565b806040517f08c379a00000000000000000000000000000000000000000000000000000000081526004016114d59190611aaa565b60405180910390fd5b505b6040517f08c379a000000000000000000000000000000000000000000000000000000000815260040161151290612aef565b60405180910390fd5b63bc197c8160e01b7bffffffffffffffffffffffffffffffffffffffffffffffffffffffff1916817bffffffffffffffffffffffffffffffffffffffffffffffffffffffff1916146115a2576040517f08c379a000000000000000000000000000000000000000000000000000000000815260040161159990612b81565b60405180910390fd5b505b505050505050565b60606000600167ffffffffffffffff8111156115cb576115ca611ad1565b5b6040519080825280602002602001820160405280156115f95781602001602082028036833780820191505090505b50905082816000815181106116115761161061230c565b5b60200260200101818152505080915050919050565b6116458473ffffffffffffffffffffffffffffffffffffffff166117fd565b156117f5578373ffffffffffffffffffffffffffffffffffffffff1663f23a6e6187878686866040518663ffffffff1660e01b815260040161168b959493929190612ba1565b6020604051808303816000875af19250505080156116c757506040513d601f19601f820116820180604052508101906116c49190612991565b60015b61176c576116d36129cb565b806308c379a00361172f57506116e76129ed565b806116f25750611731565b806040517f08c379a00000000000000000000000000000000000000000000000000000000081526004016117269190611aaa565b60405180910390fd5b505b6040517f08c379a000000000000000000000000000000000000000000000000000000000815260040161176390612aef565b60405180910390fd5b63f23a6e6160e01b7bffffffffffffffffffffffffffffffffffffffffffffffffffffffff1916817bffffffffffffffffffffffffffffffffffffffffffffffffffffffff1916146117f3576040517f08c379a00000000000000000000000000000000000000000000000000000000081526004016117ea90612b81565b60405180910390fd5b505b505050505050565b6000808273ffffffffffffffffffffffffffffffffffffffff163b119050919050565b6000604051905090565b600080fd5b600080fd5b600073ffffffffffffffffffffffffffffffffffffffff82169050919050565b600061185f82611834565b9050919050565b61186f81611854565b811461187a57600080fd5b50565b60008135905061188c81611866565b92915050565b6000819050919050565b6118a581611892565b81146118b057600080fd5b50565b6000813590506118c28161189c565b92915050565b600080604083850312156118df576118de61182a565b5b60006118ed8582860161187d565b92505060206118fe858286016118b3565b9150509250929050565b61191181611892565b82525050565b600060208201905061192c6000830184611908565b92915050565b60007fffffffff0000000000000000000000000000000000000000000000000000000082169050919050565b61196781611932565b811461197257600080fd5b50565b6000813590506119848161195e565b92915050565b6000602082840312156119a05761199f61182a565b5b60006119ae84828501611975565b91505092915050565b60008115159050919050565b6119cc816119b7565b82525050565b60006020820190506119e760008301846119c3565b92915050565b600060208284031215611a0357611a0261182a565b5b6000611a11848285016118b3565b91505092915050565b600081519050919050565b600082825260208201905092915050565b60005b83811015611a54578082015181840152602081019050611a39565b60008484015250505050565b6000601f19601f8301169050919050565b6000611a7c82611a1a565b611a868185611a25565b9350611a96818560208601611a36565b611a9f81611a60565b840191505092915050565b60006020820190508181036000830152611ac48184611a71565b905092915050565b600080fd5b7f4e487b7100000000000000000000000000000000000000000000000000000000600052604160045260246000fd5b611b0982611a60565b810181811067ffffffffffffffff82111715611b2857611b27611ad1565b5b80604052505050565b6000611b3b611820565b9050611b478282611b00565b919050565b600067ffffffffffffffff821115611b6757611b66611ad1565b5b602082029050602081019050919050565b600080fd5b6000611b90611b8b84611b4c565b611b31565b90508083825260208201905060208402830185811115611bb357611bb2611b78565b5b835b81811015611bdc5780611bc888826118b3565b845260208401935050602081019050611bb5565b5050509392505050565b600082601f830112611bfb57611bfa611acc565b5b8135611c0b848260208601611b7d565b91505092915050565b600080fd5b600067ffffffffffffffff821115611c3457611c33611ad1565b5b611c3d82611a60565b9050602081019050919050565b82818337600083830152505050565b6000611c6c611c6784611c19565b611b31565b905082815260208101848484011115611c8857611c87611c14565b5b611c93848285611c4a565b509392505050565b600082601f830112611cb057611caf611acc565b5b8135611cc0848260208601611c59565b91505092915050565b600080600080600060a08688031215611ce557611ce461182a565b5b6000611cf38882890161187d565b9550506020611d048882890161187d565b945050604086013567ffffffffffffffff811115611d2557611d2461182f565b5b611d3188828901611be6565b935050606086013567ffffffffffffffff811115611d5257611d5161182f565b5b611d5e88828901611be6565b925050608086013567ffffffffffffffff811115611d7f57611d7e61182f565b5b611d8b88828901611c9b565b9150509295509295909350565b600067ffffffffffffffff821115611db357611db2611ad1565b5b602082029050602081019050919050565b6000611dd7611dd284611d98565b611b31565b90508083825260208201905060208402830185811115611dfa57611df9611b78565b5b835b81811015611e235780611e0f888261187d565b845260208401935050602081019050611dfc565b5050509392505050565b600082601f830112611e4257611e41611acc565b5b8135611e52848260208601611dc4565b91505092915050565b60008060408385031215611e7257611e7161182a565b5b600083013567ffffffffffffffff811115611e9057611e8f61182f565b5b611e9c85828601611e2d565b925050602083013567ffffffffffffffff811115611ebd57611ebc61182f565b5b611ec985828601611be6565b9150509250929050565b600081519050919050565b600082825260208201905092915050565b6000819050602082019050919050565b611f0881611892565b82525050565b6000611f1a8383611eff565b60208301905092915050565b6000602082019050919050565b6000611f3e82611ed3565b611f488185611ede565b9350611f5383611eef565b8060005b83811015611f84578151611f6b8882611f0e565b9750611f7683611f26565b925050600181019050611f57565b5085935050505092915050565b60006020820190508181036000830152611fab8184611f33565b905092915050565b611fbc816119b7565b8114611fc757600080fd5b50565b600081359050611fd981611fb3565b92915050565b60008060408385031215611ff657611ff561182a565b5b60006120048582860161187d565b925050602061201585828601611fca565b9150509250929050565b600080604083850312156120365761203561182a565b5b60006120448582860161187d565b92505060206120558582860161187d565b9150509250929050565b600080600080600060a0868803121561207b5761207a61182a565b5b60006120898882890161187d565b955050602061209a8882890161187d565b94505060406120ab888289016118b3565b93505060606120bc888289016118b3565b925050608086013567ffffffffffffffff8111156120dd576120dc61182f565b5b6120e988828901611c9b565b9150509295509295909350565b7f455243313135353a2061646472657373207a65726f206973206e6f742061207660008201527f616c6964206f776e657200000000000000000000000000000000000000000000602082015250565b6000612152602a83611a25565b915061215d826120f6565b604082019050919050565b6000602082019050818103600083015261218181612145565b9050919050565b7f4e487b7100000000000000000000000000000000000000000000000000000000600052602260045260246000fd5b600060028204905060018216806121cf57607f821691505b6020821081036121e2576121e1612188565b5b50919050565b7f455243313135353a2063616c6c6572206973206e6f7420746f6b656e206f776e60008201527f6572206e6f7220617070726f7665640000000000000000000000000000000000602082015250565b6000612244602f83611a25565b915061224f826121e8565b604082019050919050565b6000602082019050818103600083015261227381612237565b9050919050565b7f455243313135353a206163636f756e747320616e6420696473206c656e67746860008201527f206d69736d617463680000000000000000000000000000000000000000000000602082015250565b60006122d6602983611a25565b91506122e18261227a565b604082019050919050565b60006020820190508181036000830152612305816122c9565b9050919050565b7f4e487b7100000000000000000000000000000000000000000000000000000000600052603260045260246000fd5b7f4e487b7100000000000000000000000000000000000000000000000000000000600052601160045260246000fd5b600061237582611892565b91507fffffffffffffffffffffffffffffffffffffffffffffffffffffffffffffffff82036123a7576123a661233b565b5b600182019050919050565b7f455243313135353a2069647320616e6420616d6f756e7473206c656e6774682060008201527f6d69736d61746368000000000000000000000000000000000000000000000000602082015250565b600061240e602883611a25565b9150612419826123b2565b604082019050919050565b6000602082019050818103600083015261243d81612401565b9050919050565b7f455243313135353a207472616e7366657220746f20746865207a65726f20616460008201527f6472657373000000000000000000000000000000000000000000000000000000602082015250565b60006124a0602583611a25565b91506124ab82612444565b604082019050919050565b600060208201905081810360008301526124cf81612493565b9050919050565b7f455243313135353a20696e73756666696369656e742062616c616e636520666f60008201527f72207472616e7366657200000000000000000000000000000000000000000000602082015250565b6000612532602a83611a25565b915061253d826124d6565b604082019050919050565b6000602082019050818103600083015261256181612525565b9050919050565b600061257382611892565b915061257e83611892565b92508282019050808211156125965761259561233b565b5b92915050565b600060408201905081810360008301526125b68185611f33565b905081810360208301526125ca8184611f33565b90509392505050565b7f455243313135353a206275726e2066726f6d20746865207a65726f206164647260008201527f6573730000000000000000000000000000000000000000000000000000000000602082015250565b600061262f602383611a25565b915061263a826125d3565b604082019050919050565b6000602082019050818103600083015261265e81612622565b9050919050565b7f455243313135353a206275726e20616d6f756e7420657863656564732062616c60008201527f616e636500000000000000000000000000000000000000000000000000000000602082015250565b60006126c1602483611a25565b91506126cc82612665565b604082019050919050565b600060208201905081810360008301526126f0816126b4565b9050919050565b600060408201905061270c6000830185611908565b6127196020830184611908565b9392505050565b7f455243313135353a206d696e7420746f20746865207a65726f2061646472657360008201527f7300000000000000000000000000000000000000000000000000000000000000602082015250565b600061277c602183611a25565b915061278782612720565b604082019050919050565b600060208201905081810360008301526127ab8161276f565b9050919050565b7f455243313135353a2073657474696e6720617070726f76616c2073746174757360008201527f20666f722073656c660000000000000000000000000000000000000000000000602082015250565b600061280e602983611a25565b9150612819826127b2565b604082019050919050565b6000602082019050818103600083015261283d81612801565b9050919050565b7f4e6f7420616c6c6f77656420746f207472616e7366657220746f6b656e000000600082015250565b600061287a601d83611a25565b915061288582612844565b602082019050919050565b600060208201905081810360008301526128a98161286d565b9050919050565b6128b981611854565b82525050565b600081519050919050565b600082825260208201905092915050565b60006128e6826128bf565b6128f081856128ca565b9350612900818560208601611a36565b61290981611a60565b840191505092915050565b600060a08201905061292960008301886128b0565b61293660208301876128b0565b81810360408301526129488186611f33565b9050818103606083015261295c8185611f33565b9050818103608083015261297081846128db565b90509695505050505050565b60008151905061298b8161195e565b92915050565b6000602082840312156129a7576129a661182a565b5b60006129b58482850161297c565b91505092915050565b60008160e01c9050919050565b600060033d11156129ea5760046000803e6129e76000516129be565b90505b90565b600060443d10612a7a576129ff611820565b60043d036004823e80513d602482011167ffffffffffffffff82111715612a27575050612a7a565b808201805167ffffffffffffffff811115612a455750505050612a7a565b80602083010160043d038501811115612a62575050505050612a7a565b612a7182602001850186611b00565b82955050505050505b90565b7f455243313135353a207472616e7366657220746f206e6f6e204552433131353560008201527f526563656976657220696d706c656d656e746572000000000000000000000000602082015250565b6000612ad9603483611a25565b9150612ae482612a7d565b604082019050919050565b60006020820190508181036000830152612b0881612acc565b9050919050565b7f455243313135353a204552433131353552656365697665722072656a6563746560008201527f6420746f6b656e73000000000000000000000000000000000000000000000000602082015250565b6000612b6b602883611a25565b9150612b7682612b0f565b604082019050919050565b60006020820190508181036000830152612b9a81612b5e565b9050919050565b600060a082019050612bb660008301886128b0565b612bc360208301876128b0565b612bd06040830186611908565b612bdd6060830185611908565b8181036080830152612bef81846128db565b9050969550505050505056fea264697066735822122036cb505119937319fb472828c614d8ce50afb992f63dfd60dc37f282504070de64736f6c63430008110033",
  "linkReferences": {},
  "deployedLinkReferences": {}
}